:100000000C9434000C9449000C9449000C94490061
:100010000C9449000C9449000C9449000C9449003C
:100020000C9449000C9449000C9449000C9449002C
:100030000C9449000C9449000C9449000C9449001C
:100040000C9449000C9449000C9449000C9449000C
:100050000C9449000C9449000C9449000C944900FC
:100060000C9449000C94490011241FBECFEFD8E036
:10007000DEBFCDBF11E0A0E0B1E0E4E5F8E002C0F2
:1000800005900D92A631B107D9F70E94EC000C94AF
:1000900028040C94000080E28093B8001092B9000C
:1000A000089594EA9093BC009091BC009923E4F7E2
:1000B0008093BB0084E88093BC008091BC008823BF
:1000C000E4F7089584E98093BC008091BC0084FD2E
:1000D000FCCF08958093BB0084E88093BC0080919E
:1000E000BC008823E4F7089584EC8093BC008091E1
:1000F000BC008823E4F78091BB00089584E88093D6
:10010000BC008091BC008823E4F78091BB00089577
:10011000EF92FF920F931F93CF93DF93EC018B012C
:100120007A0180ED0E94510080E00E946A0081ED1A
:100130000E9451000E947400F70180830E947400A5
:10014000F80180830E947E0088830E946200DF9114
:10015000CF911F910F91FF90EF900895CF93C82FEB
:1001600087E20E94510080E00E946A008C2F0E946A
:100170006A000E946200CF910895CF93C82F87E252
:100180000E94510080E40E946A008C2F0E946A0045
:100190000E946200CF91089587E893E10197F1F7FB
:1001A00000C0000088E30E94AE008CE00E94AE0018
:1001B00081E00E94AE0086E00E94AE000895CF93D9
:1001C000DF93EC0103C021960E94BD00888181115C
:1001D000FACFDF91CF910895CF93DF93CDB7DEB7FC
:1001E00067970FB6F894DEBF0FBECDBF0E944B00DD
:1001F0000E94CC00AE014D5F5F4FBE016E5F7F4F2E
:10020000CE0101960E9488008B811F928F938A8174
:100210001F928F9389811F928F9380E091E09F932B
:100220008F931F9284E18F938E010C5F1F4F1F935A
:100230000F930E94300181E00E94AE00C8010E942D
:10024000DF002FE38DE093E0215080409040E1F704
:1002500000C000000FB6F894DEBF0FBECDBFCACFFE
:10026000AEE0B0E0E6E3F1E00C94FF030D891E89F7
:100270008F89988D26E02C831A83098397FF02C00B
:1002800080E090E801979E838D83AE01455E5F4FCD
:10029000698D7A8DCE0101960E9460014D815E814B
:1002A00057FD0AC02F813885421753070CF49A0175
:1002B000F801E20FF31F10822E96E4E00C941B0469
:1002C000ABE0B0E0E6E6F1E00C94F1036C017B01F9
:1002D0008A01FC0117821682838181FFCCC1CE0185
:1002E00001963C01F6019381F70193FD859193FFFF
:1002F00081917F01882309F4BAC1853239F493FDD5
:10030000859193FF81917F01853229F4B60190E0B8
:100310000E945703E7CF912C212C312CFFE1F315DC
:10032000D8F08B3279F038F4803279F08332A1F44E
:10033000232D20611DC08D3261F0803369F4232D9F
:10034000216016C0832D8260382EE32DE4603E2E9E
:100350002AC0F32DF8601DC037FC2DC020ED280FFA
:100360002A3040F08E32B9F436FC81C1232D20644E
:10037000322E19C036FE06C08AE0989E200D112448
:10038000922E11C0EAE02E9E200D1124222EF32D74
:10039000F0623F2E08C08C3621F4832D8068382E01
:1003A00002C0883641F4F70193FD859193FF819156
:1003B0007F018111B3CF982F9F7D9554933028F4FE
:1003C0000C5F1F4F9FE399830DC0833631F0833755
:1003D00071F0833509F059C021C0F801808189830B
:1003E0000E5F1F4F88248394912C530113C0280162
:1003F000F2E04F0E511CF801A080B18036FE03C020
:10040000692D70E002C06FEF7FEFC5010E944C03C1
:100410004C018201F32DFF773F2E16C0280122E008
:10042000420E511CF801A080B18036FE03C0692D38
:1004300070E002C06FEF7FEFC5010E9441034C01E5
:10044000F32DF0683F2E820133FC1BC0822D90E01B
:1004500088169906B0F4B60180E290E00E94570336
:100460002A94F4CFF50137FC859137FE81915F0125
:10047000B60190E00E94570321102A9421E0821ACD
:1004800091088114910471F7E8C0843611F089361F
:1004900041F5F80137FE07C0608171818281938147
:1004A0000C5F1F4F08C060817181072E000C880B04
:1004B000990B0E5F1F4FF32DFF763F2E97FF09C05C
:1004C00090958095709561957F4F8F4F9F4FF06805
:1004D0003F2E2AE030E0A3010E949303882E861865
:1004E00045C0853731F4232D2F7EB22E2AE030E02F
:1004F00025C0932D997FB92E8F36C1F018F4883519
:1005000079F0B5C0803719F0883721F0B0C0E92FF5
:10051000E061BE2EB4FE0DC0FB2DF460BF2E09C0FD
:1005200034FE0AC0292F2660B22E06C028E030E033
:1005300005C020E130E002C020E132E0F801B7FE62
:1005400007C060817181828193810C5F1F4F06C05B
:100550006081718180E090E00E5F1F4FA3010E94D7
:100560009303882E8618FB2DFF773F2E36FE0DC095
:10057000232D2E7FA22E891458F434FE0BC032FC9A
:1005800009C0832D8E7EA82E05C0B82CA32C03C0D5
:10059000B82C01C0B92CA4FE0FC0FE01E80DF11D5E
:1005A0008081803321F49A2D997EA92E09C0A2FE64
:1005B00006C0B394B39404C08A2D867809F0B3942E
:1005C000A3FC11C0A0FE06C0B21488F4280C922C23
:1005D0009B180EC0B21460F4B60180E290E00E9455
:1005E0005703B394F7CFB21418F42B1802C0982C09
:1005F000212CA4FE10C0B60180E390E00E945703B6
:10060000A2FE17C0A1FC03C088E790E002C088E505
:1006100090E0B6010CC08A2D867859F0A1FE02C088
:100620008BE201C080E2A7FC8DE2B60190E00E945F
:100630005703891438F4B60180E390E00E94570311
:100640009A94F7CF8A94F301E80DF11D8081B601E9
:1006500090E00E9457038110F5CF222009F442CE8A
:10066000B60180E290E00E9457032A94F6CFF6018B
:100670008681978102C08FEF9FEF2B96E2E10C9469
:100680000D04FC010590615070400110D8F7809571
:1006900090958E0F9F1F0895FC016150704001904E
:1006A0000110D8F7809590958E0F9F1F08950F9396
:1006B0001F93CF93DF93FB01238121FD03C08FEFB5
:1006C0009FEF2CC022FF16C04681578124813581BF
:1006D0004217530744F4A081B1819D012F5F3F4F22
:1006E000318320838C93268137812F5F3F4F37835F
:1006F000268314C08B01EC01FB010084F185E02D01
:100700000995892BE1F6D80116968D919C91179742
:10071000019617969C938E931697CE01DF91CF91F9
:100720001F910F910895FA01AA27283051F1203125
:1007300081F1E8946F936E7F6E5F7F4F8F4F9F4F75
:10074000AF4FB1E03ED0B4E03CD0670F781F891FB7
:100750009A1FA11D680F791F8A1F911DA11D6A0F85
:10076000711D811D911DA11D20D009F468943F9138
:100770002AE0269F11243019305D3193DEF6CF0137
:100780000895462F4770405D4193B3E00FD0C9F7FD
:10079000F6CF462F4F70405D4A3318F0495D31FD6A
:1007A0004052419302D0A9F7EACFB4E0A6959795BD
:1007B000879577956795BA95C9F700976105710593
:1007C00008959B01AC010A2E0694579547953795DD
:1007D0002795BA95C9F7620F731F841F951FA01D37
:1007E00008952F923F924F925F926F927F928F92D5
:1007F0009F92AF92BF92CF92DF92EF92FF920F93B0
:100800001F93CF93DF93CDB7DEB7CA1BDB0B0FB6B9
:10081000F894DEBF0FBECDBF09942A883988488876
:100820005F846E847D848C849B84AA84B984C8840C
:10083000DF80EE80FD800C811B81AA81B981CE0F03
:10084000D11D0FB6F894DEBF0FBECDBFED010895E8
:04085000F894FFCF4A
:1008540054696D653A20253032643A253032643A61
:06086400253032640000A3
:00000001FF
