:100000000C9434000C9451000C9451000C94510049
:100010000C9451000C9451000C9451000C9451001C
:100020000C9451000C9451000C9451000C9451000C
:100030000C9451000C9451000C9451000C945100FC
:100040000C9451000C9451000C946F000C945100CE
:100050000C9451000C9451000C9451000C945100DC
:100060000C9451000C94510011241FBECFEFD8E026
:10007000DEBFCDBF11E0A0E0B1E0E0E4F9E002C0F6
:1000800005900D92AC36B107D9F721E0ACE6B1E0AE
:1000900001C01D92AD36B207E1F70E94AF000C948B
:1000A0009E040C94000080E480937C0087E8809399
:1000B0007A000895ECE7F0E09081907F8F70892BB3
:1000C0008083EAE7F0E080818064808380917A0019
:1000D00086FDFCCF809178009091790008951F9261
:1000E0000F920FB60F9211248F938091C6008093C8
:1000F0006C018F910F900FBE0F901F901895E2EC3E
:10010000F0E020812F73208322E02093C0009093A1
:10011000C5008093C40086E0808388E98093C10095
:1001200008959091C00095FFFCCF8093C60008957C
:100130000F931F93CF93DF938C01C0E0D0E004C0F6
:10014000219690E00E949100F801EC0FFD1F808144
:100150008111F6CFDF91CF911F910F910895CF9329
:10016000DF93CDB7DEB760970FB6F894DEBF0FBE52
:10017000CDBF8FEC90E00E947F000E9453007894E6
:1001800080E091E00E94980080916C01813309F039
:1001900055C080E00E945A0028E833E1AC01429F3C
:1001A000C001439F900D529F900D11246FEF73E09B
:1001B0000E948301AB019B013695279536952795C3
:1001C00036952795A5ECB0E20E9497019C013295E7
:1001D00022952F7023273F70232768EE73E0269F18
:1001E000C001279F900D369F900D11249A01281B66
:1001F000390BADECBCEC0E949701969587959695CE
:100200008795969587959F938F931F921F928AE467
:1002100091E09F938F931F9280E18F938E010F5FE8
:100220001F4F1F930F930E94A601C8010E949800C0
:100230000FB6F894DEBF0FBECDBF59C080916C01E0
:10024000823309F054C081E00E945A0028E833E16B
:10025000AC01429FC001439F900D529F900D11240D
:100260006FEF73E00E948301AB019B0136952795E8
:100270003695279536952795A5ECB0E20E94970113
:100280009C01329522952F7023273F70232768EE1B
:1002900073E0269FC001279F900D369F900D11247B
:1002A0009A01281B390BADECBCEC0E949701969586
:1002B000879596958795969587959F938F931F928F
:1002C0001F928BE591E09F938F931F9280E18F9314
:1002D0008E010F5F1F4F1F930F930E94A601C8014D
:1002E0000E9498000FB6F894DEBF0FBECDBF1092EB
:1002F0006C019FEF21EE44E0915020404040E1F737
:1003000000C0000041CFAA1BBB1B51E107C0AA1FC0
:10031000BB1FA617B70710F0A61BB70B881F991FA6
:100320005A95A9F780959095BC01CD010895A29F9B
:10033000B001B39FC001A39F700D811D1124911DB9
:10034000B29F700D811D1124911D0895AEE0B0E0A3
:10035000ECEAF1E00C9475040D891E898F89988D63
:1003600026E02C831A83098397FF02C080E090E87F
:1003700001979E838D83AE01455E5F4F698D7A8DB7
:10038000CE0101960E94D6014D815E8157FD0AC0C3
:100390002F813885421753070CF49A01F801E20FB8
:1003A000F31F10822E96E4E00C949104ABE0B0E0D1
:1003B000ECEDF1E00C9467046C017B018A01FC0117
:1003C00017821682838181FFCCC1CE0101963C0148
:1003D000F6019381F70193FD859193FF81917F0150
:1003E000882309F4BAC1853239F493FD859193FFCE
:1003F00081917F01853229F4B60190E00E94CD03FE
:10040000E7CF912C212C312CFFE1F315D8F08B3262
:1004100079F038F4803279F08332A1F4232D206111
:100420001DC08D3261F0803369F4232D216016C028
:10043000832D8260382EE32DE4603E2E2AC0F32DFA
:10044000F8601DC037FC2DC020ED280F2A3040F089
:100450008E32B9F436FC81C1232D2064322E19C0AE
:1004600036FE06C08AE0989E200D1124922E11C0FF
:10047000EAE02E9E200D1124222EF32DF0623F2E55
:1004800008C08C3621F4832D8068382E02C088364F
:1004900041F4F70193FD859193FF81917F018111D3
:1004A000B3CF982F9F7D9554933028F40C5F1F4F46
:1004B0009FE399830DC0833631F0833771F0833524
:1004C00009F059C021C0F801808189830E5F1F4F58
:1004D00088248394912C530113C02801F2E04F0E1D
:1004E000511CF801A080B18036FE03C0692D70E078
:1004F00002C06FEF7FEFC5010E94C2034C01820171
:10050000F32DFF773F2E16C0280122E0420E511C2A
:10051000F801A080B18036FE03C0692D70E002C0F2
:100520006FEF7FEFC5010E94B7034C01F32DF06818
:100530003F2E820133FC1BC0822D90E08816990665
:10054000B0F4B60180E290E00E94CD032A94F4CF8B
:10055000F50137FC859137FE81915F01B60190E08E
:100560000E94CD0321102A9421E0821A910881145F
:10057000910471F7E8C0843611F0893641F5F8012D
:1005800037FE07C060817181828193810C5F1F4FAC
:1005900008C060817181072E000C880B990B0E5FDB
:1005A0001F4FF32DFF763F2E97FF09C09095809542
:1005B000709561957F4F8F4F9F4FF0683F2E2AE0D7
:1005C00030E0A3010E940904882E861845C08537B3
:1005D00031F4232D2F7EB22E2AE030E025C0932D5A
:1005E000997FB92E8F36C1F018F4883579F0B5C0EF
:1005F000803719F0883721F0B0C0E92FE061BE2EB6
:10060000B4FE0DC0FB2DF460BF2E09C034FE0AC03D
:10061000292F2660B22E06C028E030E005C020E178
:1006200030E002C020E132E0F801B7FE07C060818F
:100630007181828193810C5F1F4F06C0608171813F
:1006400080E090E00E5F1F4FA3010E940904882EF6
:100650008618FB2DFF773F2E36FE0DC0232D2E7FF3
:10066000A22E891458F434FE0BC032FC09C0832D2D
:100670008E7EA82E05C0B82CA32C03C0B82C01C0B8
:10068000B92CA4FE0FC0FE01E80DF11D808180335E
:1006900021F49A2D997EA92E09C0A2FE06C0B3941A
:1006A000B39404C08A2D867809F0B394A3FC11C0DA
:1006B000A0FE06C0B21488F4280C922C9B180EC021
:1006C000B21460F4B60180E290E00E94CD03B394CE
:1006D000F7CFB21418F42B1802C0982C212CA4FECA
:1006E00010C0B60180E390E00E94CD03A2FE17C0C7
:1006F000A1FC03C088E790E002C088E590E0B60165
:100700000CC08A2D867859F0A1FE02C08BE201C090
:1007100080E2A7FC8DE2B60190E00E94CD0389142F
:1007200038F4B60180E390E00E94CD039A94F7CFAD
:100730008A94F301E80DF11D8081B60190E00E94DA
:10074000CD038110F5CF222009F442CEB60180E21C
:1007500090E00E94CD032A94F6CFF601868197811E
:1007600002C08FEF9FEF2B96E2E10C948304FC0113
:100770000590615070400110D8F7809590958E0FCC
:100780009F1F0895FC016150704001900110D8F73F
:10079000809590958E0F9F1F08950F931F93CF9371
:1007A000DF93FB01238121FD03C08FEF9FEF2CC05E
:1007B00022FF16C046815781248135814217530795
:1007C00044F4A081B1819D012F5F3F4F318320838D
:1007D0008C93268137812F5F3F4F3783268314C048
:1007E0008B01EC01FB010084F185E02D0995892B3B
:1007F000E1F6D80116968D919C9117970196179660
:100800009C938E931697CE01DF91CF911F910F91FC
:100810000895FA01AA27283051F1203181F1E89496
:100820006F936E7F6E5F7F4F8F4F9F4FAF4FB1E0E3
:100830003ED0B4E03CD0670F781F891F9A1FA11DDE
:10084000680F791F8A1F911DA11D6A0F711D811DDF
:10085000911DA11D20D009F468943F912AE0269FA4
:1008600011243019305D3193DEF6CF010895462F03
:100870004770405D4193B3E00FD0C9F7F6CF462FE4
:100880004F70405D4A3318F0495D31FD405241934D
:1008900002D0A9F7EACFB4E0A6959795879577950A
:1008A0006795BA95C9F700976105710508959B0191
:1008B000AC010A2E06945795479537952795BA951A
:1008C000C9F7620F731F841F951FA01D08952F92F3
:1008D0003F924F925F926F927F928F929F92AF92D0
:1008E000BF92CF92DF92EF92FF920F931F93CF931D
:1008F000DF93CDB7DEB7CA1BDB0B0FB6F894DEBFB4
:100900000FBECDBF09942A88398848885F846E84D9
:100910007D848C849B84AA84B984C884DF80EE8023
:10092000FD800C811B81AA81B981CE0FD11D0FB62C
:10093000F894DEBF0FBECDBFED010895F894FFCF50
:10094000526561647920746F2072656365697665AC
:1009500020636F6D6D616E64733A0D0A53656E644A
:100960002027312720666F7220504F5431202841B4
:100970003029206F722027322720666F7220504F57
:10098000543220284131290D0A00504F54313A2069
:1009900025752E25303275560D0A00504F54323AC7
:0C09A0002025752E25303275560D0A00FA
:00000001FF
